:100000000C9434000C9451000C9451000C94510049
:100010000C9451000C9451000C9451000C9451001C
:100020000C9451000C9451000C9451000C9451000C
:100030000C9451000C9451000C9451000C945100FC
:100040000C9451000C9451000C9451000C945100EC
:100050000C9451000C9451000C9451000C945100DC
:100060000C9451000C94510011241FBECFEFD8E026
:10007000DEBFCDBF11E0A0E0B1E0EEE2FCE002C0E7
:1000800005900D92A03CB107D9F711E0A0ECB1E0CA
:1000900001C01D92AA3CB107E1F70E947D010C94BA
:1000A00015060C9400009091C00095FFFCCF809342
:1000B000C60008958091C00087FFFCCF8091C600E4
:1000C00008951092C50080E18093C400E0ECF0E058
:1000D00080818260808386E08093C20088E1809383
:1000E000C100089580E391E00E9439031092B900A5
:1000F0008CE08093B80084E08093BC0008958AE38C
:1001000091E00E94390384EA8093BC008091BC0096
:1001100087FFFCCF87E491E00C94390384E9809356
:10012000BC0008958093BB0084E88093BC0080915C
:10013000BC0087FFFCCF089584EC8093BC008091C5
:10014000BC0087FFFCCF8091BB00089584E88093BA
:10015000BC008091BC0087FFFCCF8091BB0008955C
:100160008091B900887F0895CF93C82F89E591E0E9
:100170000E9439030E947F009091B900987F9830C7
:1001800019F08FEFCF91089589E691E00E9439032D
:100190008AE18093BB0084E88093BC009091BC000E
:1001A00097FFFCCF8091B900887F883151F786E7AF
:1001B00091E00E943903C093BB0084E88093BC00A7
:1001C0008091BC0087FFFCCF8091B900887F883187
:1001D000C1F686E791E00E94390384E98093BC0070
:1001E00080E0D0CFCF93DF93EC0183E891E00E94D1
:1001F00039030E947F008091B900887F883021F008
:100200008FEFDF91CF91089589E691E00E94390345
:100210008BE18093BB0084E88093BC008091BC009C
:1002200087FFFCCF8091B900887F883149F786E746
:1002300091E00E94390384E88093BC008091BC0067
:1002400087FFFCCF8091BB0088838091B900887FB5
:100250008831B1F682E991E00E94390384E9809304
:10026000BC0080E0CECF2FEF83ED90E321508040A3
:100270009040E1F700C0000008958CE697E090936D
:100280008B0080938A002FEF83ED90E32150804014
:100290009040E1F700C00000089588EB9BE0909348
:1002A0008B0080938A002FEF83ED90E321508040F4
:1002B0009040E1F700C0000008958CEA9DE0909323
:1002C0008B0080938A002FEF83ED90E321508040D4
:1002D0009040E1F700C00000089584E991E1909317
:1002E0008B0080938A002FEF83ED90E321508040B4
:1002F0009040E1F700C000000895F8941092C50006
:1003000080E18093C4008091C00082608093C0002F
:1003100086E08093C20088E18093C1008CE191E087
:100320009093C7018093C6018EE091E09093C50140
:100330008093C40184B1836084B9289A299880E3AA
:1003400091E00E9439031092B9008CE08093B800CC
:1003500084E08093BC0082EA809380008AE18093ED
:1003600081008FE39CE99093870080938600229A16
:1003700078948EE991E00E94390388E090E00E9431
:10038000FE018C01CCEAD1E08CE6C82E87E0D82EA5
:1003900094E9E92E91E1F92EBB24B39481E50E9402
:1003A000B400C8010E94F200F80180811F928F936F
:1003B000DF93CF930E942503D0928B00C0928A00D6
:1003C0008FEF93EDE0E381509040E040E1F700C013
:1003D0000000F0928B00E0928A00FFEF23ED80E3B3
:1003E000F15020408040E1F700C0000085B18B252E
:1003F00085B90F900F900F900F90D0CFCF93DF93D0
:100400008230910510F482E090E0E091C201F09119
:10041000C30120E030E0A0E0B0E0309739F1408146
:10042000518148175907B8F04817590771F482816C
:100430009381109729F013969C938E9312972CC05A
:100440009093C3018093C20127C02115310531F07B
:100450004217530718F0A901DB0101C0EF019A010F
:10046000BD01DF010280F381E02DD7CF21153105D9
:10047000F9F0281B390B2430310580F48A819B81E7
:100480006115710521F0FB019383828304C0909371
:10049000C3018093C201FE01329644C0FE01E20F07
:1004A000F31F8193919322503109398328833AC0F5
:1004B0002091C0013091C101232B41F420912C01E6
:1004C00030912D013093C1012093C00120912A0168
:1004D00030912B012115310541F42DB73EB74091E4
:1004E0002E0150912F01241B350BE091C001F0919A
:1004F000C101E217F307A0F42E1B3F0B28173907A1
:1005000078F0AC014E5F5F4F2417350748F04E0F6F
:100510005F1F5093C1014093C0018193919302C02A
:10052000E0E0F0E0CF01DF91CF910895CF93DF932A
:10053000009709F487C0FC01329713821282C091A0
:10054000C201D091C301209781F420813181280F0D
:10055000391F8091C0019091C1018217930779F5ED
:10056000F093C101E093C0016DC0DE0120E030E0F6
:10057000AE17BF0750F412964D915C9113979D01F1
:100580004115510509F1DA01F3CFB383A28340810C
:100590005181840F951F8A179B0771F48D919C914F
:1005A0001197840F951F02969183808312968D91E7
:1005B0009C911397938382832115310529F4F0933D
:1005C000C301E093C2013EC0D9011396FC93EE93A0
:1005D00012974D915D91A40FB51FEA17FB0779F4AF
:1005E00080819181840F951F0296D90111969C9369
:1005F0008E938281938113969C938E931297E0E061
:10060000F0E08A819B81009719F0FE01EC01F9CF9F
:10061000CE01029628813981820F931F2091C0015B
:100620003091C1012817390769F4309729F41092E5
:10063000C3011092C20102C013821282D093C10181
:10064000C093C001DF91CF910895A0E0B0E0EBE24C
:10065000F3E00C94EE05FE01359661917191AF01C6
:100660008091C6019091C7010E946603E2E00C945C
:100670000A060F931F93CF93DF93E091C601F09189
:10068000C701238121FF1BC0EC0100E010E089912C
:100690006091C6017091C701DB011896ED91FC9144
:1006A0001997882331F00995892B89F30FEF1FEFF4
:1006B000EECF8AE00995892B11F4C80102C08FEFB3
:1006C0009FEFDF91CF911F910F910895ACE0B0E0C3
:1006D000ECE6F3E00C94DE057C016B018A01FC0181
:1006E00017821682838181FFBDC1CE0101964C0124
:1006F000F7019381F60193FD859193FF81916F013D
:10070000882309F4ABC1853239F493FD859193FFB9
:1007100081916F01853229F4B70190E00E944E0566
:10072000E7CF512C312C20E02032A0F48B3269F03D
:1007300030F4803259F0833269F420612CC08D325C
:1007400039F0803339F4216026C02260246023C050
:10075000286021C027FD27C030ED380F3A3078F4EB
:1007600026FF06C0FAE05F9E300D1124532E13C001
:100770008AE0389E300D1124332E20620CC08E3258
:1007800021F426FD6BC1206406C08C3611F420686C
:1007900002C0883641F4F60193FD859193FF819163
:1007A0006F018111C1CF982F9F7D9554933028F40C
:1007B0000C5F1F4FFFE3F9830DC0833631F08337A1
:1007C00071F0833509F05BC022C0F8018081898314
:1007D0000E5F1F4F44244394512C540115C038011F
:1007E000F2E06F0E711CF801A080B18026FF03C0FB
:1007F000652D70E002C06FEF7FEFC5012C870E946E
:1008000043052C0183012C852F77222E17C0380138
:10081000F2E06F0E711CF801A080B18026FF03C0CA
:10082000652D70E002C06FEF7FEFC5012C870E943D
:1008300038052C012C852068222E830123FC1BC047
:10084000832D90E048165906B0F4B70180E290E09D
:100850000E944E053A94F4CFF50127FC859127FEBE
:1008600081915F01B70190E00E944E0531103A94EA
:10087000F1E04F1A51084114510471F7E5C0843674
:1008800011F0893639F5F80127FF07C060817181C1
:10089000828193810C5F1F4F08C06081718188271E
:1008A00077FD8095982F0E5F1F4F2F76B22E97FF02
:1008B00009C090958095709561957F4F8F4F9F4FA0
:1008C0002068B22E2AE030E0A4010E948005A82E04
:1008D000A81844C0853729F42F7EB22E2AE030E0D4
:1008E00025C0F22FF97FBF2E8F36C1F018F488355E
:1008F00079F0B4C0803719F0883721F0AFC02F2FBE
:100900002061B22EB4FE0DC08B2D8460B82E09C0BC
:1009100024FF0AC09F2F9660B92E06C028E030E061
:1009200005C020E130E002C020E132E0F801B7FE6E
:1009300007C060817181828193810C5F1F4F06C067
:100940006081718180E090E00E5F1F4FA4010E94E2
:100950008005A82EA818FB2DFF77BF2EB6FE0BC072
:100960002B2D2E7FA51450F4B4FE0AC0B2FC08C093
:100970002B2D2E7E05C07A2C2B2D03C07A2C01C086
:10098000752C24FF0DC0FE01EA0DF11D808180331E
:1009900011F4297E09C022FF06C07394739404C029
:1009A000822F867809F0739423FD13C020FF06C0C0
:1009B0005A2C731418F4530C5718732C731468F4CE
:1009C000B70180E290E02C870E944E0573942C853D
:1009D000F5CF731410F4371801C0312C24FF12C066
:1009E000B70180E390E02C870E944E052C8522FF02
:1009F00017C021FF03C088E590E002C088E790E0BF
:100A0000B7010CC0822F867859F021FD02C080E228
:100A100001C08BE227FD8DE2B70190E00E944E05F8
:100A2000A51438F4B70180E390E00E944E055A9473
:100A3000F7CFAA94F401EA0DF11D8081B70190E08F
:100A40000E944E05A110F5CF332009F451CEB70115
:100A500080E290E00E944E053A94F6CFF70186813D
:100A6000978102C08FEF9FEF2C96E2E10C94FA057C
:100A7000FC010590615070400110D8F78095909569
:100A80008E0F9F1F0895FC0161507040019001106E
:100A9000D8F7809590958E0F9F1F08950F931F9301
:100AA000CF93DF93182F092FEB018B8181FD03C0BA
:100AB0008FEF9FEF20C082FF10C04E815F812C819D
:100AC0003D81421753077CF4E881F9819F012F5F34
:100AD0003F4F39832883108306C0E885F985812F2D
:100AE0000995892B29F72E813F812F5F3F4F3F8347
:100AF0002E83812F902FDF91CF911F910F91089519
:100B0000FA01AA27283051F1203181F1E8946F933E
:100B10006E7F6E5F7F4F8F4F9F4FAF4FB1E03ED0E4
:100B2000B4E03CD0670F781F891F9A1FA11D680F82
:100B3000791F8A1F911DA11D6A0F711D811D911DB5
:100B4000A11D20D009F468943F912AE0269F11242A
:100B50003019305D3193DEF6CF010895462F47708E
:100B6000405D4193B3E00FD0C9F7F6CF462F4F70E9
:100B7000405D4A3318F0495D31FD4052419302D047
:100B8000A9F7EACFB4E0A6959795879577956795ED
:100B9000BA95C9F700976105710508959B01AC01ED
:100BA0000A2E06945795479537952795BA95C9F714
:100BB000620F731F841F951FA01D08952F923F92EF
:100BC0004F925F926F927F928F929F92AF92BF925D
:100BD000CF92DF92EF92FF920F931F93CF93DF9309
:100BE000CDB7DEB7CA1BDB0B0FB6F894DEBF0FBE66
:100BF000CDBF09942A88398848885F846E847D84B3
:100C00008C849B84AA84B984C884DF80EE80FD80B4
:100C10000C811B81AA81B981CE0FD11D0FB6F8942A
:0E0C2000DEBF0FBECDBFED010895F894FFCFEB
:100C2E00000000030000000053005A000000000006
:100C3E0000010000000000005A0000000000000249
:100C4E00000000005300000000000000CA01200058
:100C5E0054574920696E69740D00496E20545749E6
:100C6E0053746172740D004C656176696E67205421
:100C7E00574953746172740D00696E204545577261
:100C8E00697465446174610D0061667465722073E8
:100C9E00746172740D006166746572207772697486
:100CAE00650D00696E20454552656164446174614D
:100CBE000D00616674657220726561640D00486591
:100CCE006C6C6F20776F726C64210D0050726F64C4
:100CDE007563742049442069732025630D0A000052
:00000001FF
