:100000000C9434000C9451000C9451000C94510049
:100010000C9451000C9451000C9451000C9451001C
:100020000C9451000C9451000C9451000C9451000C
:100030000C9451000C9451000C9451000C945100FC
:100040000C9451000C9451000C9451000C945100EC
:100050000C9451000C9451000C9451000C945100DC
:100060000C9451000C94510011241FBECFEFD8E026
:10007000DEBFCDBF11E0A0E0B1E0EAE2F9E002C0EE
:1000800005900D92A834B107D9F711E0A8E4B1E0CA
:1000900001C01D92AE34B107E1F70E9425010C9416
:1000A00093040C9400009091C00095FFFCCF8093C6
:1000B000C60008958091C00087FFFCCF8091C600E4
:1000C00008951092C50080E18093C400E0ECF0E058
:1000D00080818260808386E08093C20088E1809383
:1000E000C10008951092B9008CE08093B80084E0BC
:1000F0008093BC00089584EA8093BC008091BC008A
:1001000087FFFCCF089584E98093BC000895809315
:10011000BB0084E88093BC008091BC0087FFFCCFCB
:10012000089584EC8093BC008091BC0087FFFCCFD5
:100130008091BB00089584E88093BC008091BC004E
:1001400087FFFCCF8091BB0008958091B900887F24
:10015000089594EA9093BC009091BC0097FFFCCF67
:100160009091B900987F983011F08FEF08959AE13F
:100170009093BB0094E89093BC009091BC0097FFD3
:10018000FCCF9091B900987F983179F794EC9093D7
:10019000BC009091BC0097FFFCCF9091BB00909168
:1001A000B900987F983109F78093BB0084E8809369
:1001B000BC008091BC0087FFFCCF8091B900887F94
:1001C000883199F684EC8093BC008091BC0087FF55
:1001D000FCCF8091BB008091B900887F883129F6DF
:1001E00084E98093BC0080E0089584EA8093BC0099
:1001F0008091BC0087FFFCCF8091B900887F883058
:1002000011F08FEF08958BE18093BB0084E8809319
:10021000BC008091BC0087FFFCCF8091B900887F33
:10022000883179F784EC8093BC008091BC0087FF13
:10023000FCCF8091BB008091B900887F883109F79D
:1002400084E98093BC0080E008951092C50080E1AD
:100250008093C4008091C00082608093C00086E0DB
:100260008093C20088E18093C1008CE191E090937B
:100270004B0180934A018EE091E090934901809375
:10028000480184B1836084B9289A29988AE291E070
:100290000E94B701C8E3D1E011E08091480190913C
:1002A00049010E946501282F332727FD30953F9390
:1002B0008F93DF93CF930E94A30185B1812785B9E6
:1002C0000F900F900F900F90E8CFCF93DF93EC013A
:1002D0002B8120FF33C026FF0AC02F7B2B838E810A
:1002E0009F8101969F838E838A8190E029C022FF9F
:1002F0000FC0E881F9818081992787FD909500974B
:1003000019F420622B831AC03196F983E8830EC05A
:10031000EA85FB85099597FF09C02B81019611F4A9
:1003200080E101C080E2822B8B8308C02E813F8157
:100330002F5F3F4F3F832E83992702C08FEF9FEFA0
:10034000DF91CF910895A0E0B0E0E9EAF1E00C94EC
:100350006C04FE01359661917191AF0180914A0163
:1003600090914B010E94E401E2E00C9488040F9309
:100370001F93CF93DF93E0914A01F0914B012381CA
:1003800021FF1BC0EC0100E010E0899160914A015F
:1003900070914B01DB011896ED91FC911997882320
:1003A00031F00995892B89F30FEF1FEFEECF8AE02B
:1003B0000995892B11F4C80102C08FEF9FEFDF91DF
:1003C000CF911F910F910895ACE0B0E0EAEEF1E01B
:1003D0000C945C047C016B018A01FC01178216827B
:1003E000838181FFBDC1CE0101964C01F70193814C
:1003F000F60193FD859193FF81916F01882309F4A4
:10040000ABC1853239F493FD859193FF81916F01E2
:10041000853229F4B70190E00E94CC03E7CF512C3C
:10042000312C20E02032A0F48B3269F030F480329D
:1004300059F0833269F420612CC08D3239F0803359
:1004400039F4216026C02260246023C0286021C0C6
:1004500027FD27C030ED380F3A3078F426FF06C06C
:10046000FAE05F9E300D1124532E13C08AE0389EAF
:10047000300D1124332E20620CC08E3221F426FD63
:100480006BC1206406C08C3611F4206802C0883627
:1004900041F4F60193FD859193FF81916F018111E4
:1004A000C1CF982F9F7D9554933028F40C5F1F4F38
:1004B000FFE3F9830DC0833631F0833771F0833564
:1004C00009F05BC022C0F801808189830E5F1F4F55
:1004D00044244394512C540115C03801F2E06F0EAE
:1004E000711CF801A080B18026FF03C0652D70E06B
:1004F00002C06FEF7FEFC5012C870E94C1032C0162
:1005000083012C852F77222E17C03801F2E06F0E61
:10051000711CF801A080B18026FF03C0652D70E03A
:1005200002C06FEF7FEFC5012C870E94B6032C013C
:100530002C852068222E830123FC1BC0832D90E094
:1005400048165906B0F4B70180E290E00E94CC034F
:100550003A94F4CFF50127FC859127FE81915F0144
:10056000B70190E00E94CC0331103A94F1E04F1AA9
:1005700051084114510471F7E5C0843611F08936F1
:1005800039F5F80127FF07C060817181828193816D
:100590000C5F1F4F08C060817181882777FD8095AF
:1005A000982F0E5F1F4F2F76B22E97FF09C09095A0
:1005B0008095709561957F4F8F4F9F4F2068B22E29
:1005C0002AE030E0A4010E94FE03A82EA81844C02F
:1005D000853729F42F7EB22E2AE030E025C0F22F95
:1005E000F97FBF2E8F36C1F018F4883579F0B4C08A
:1005F000803719F0883721F0AFC02F2F2061B22E3D
:10060000B4FE0DC08B2D8460B82E09C024FF0AC033
:100610009F2F9660B92E06C028E030E005C020E18B
:1006200030E002C020E132E0F801B7FE07C060818F
:100630007181828193810C5F1F4F06C0608171813F
:1006400080E090E00E5F1F4FA4010E94FE03A82EE1
:10065000A818FB2DFF77BF2EB6FE0BC02B2D2E7FCB
:10066000A51450F4B4FE0AC0B2FC08C02B2D2E7E97
:1006700005C07A2C2B2D03C07A2C01C0752C24FFC9
:100680000DC0FE01EA0DF11D8081803311F4297E39
:1006900009C022FF06C07394739404C0822F867829
:1006A00009F0739423FD13C020FF06C05A2C731465
:1006B00018F4530C5718732C731468F4B70180E2C4
:1006C00090E02C870E94CC0373942C85F5CF731493
:1006D00010F4371801C0312C24FF12C0B70180E399
:1006E00090E02C870E94CC032C8522FF17C021FFAD
:1006F00003C088E590E002C088E790E0B7010CC035
:10070000822F867859F021FD02C080E201C08BE281
:1007100027FD8DE2B70190E00E94CC03A51438F4C8
:10072000B70180E390E00E94CC035A94F7CFAA94DB
:10073000F401EA0DF11D8081B70190E00E94CC0325
:10074000A110F5CF332009F451CEB70180E290E03B
:100750000E94CC033A94F6CFF7018681978102C0BC
:100760008FEF9FEF2C96E2E10C947804FC0105904A
:10077000615070400110D8F7809590958E0F9F1FA3
:100780000895FC016150704001900110D8F78095E8
:1007900090958E0F9F1F08950F931F93CF93DF9314
:1007A000182F092FEB018B8181FD03C08FEF9FEF85
:1007B00020C082FF10C04E815F812C813D81421795
:1007C00053077CF4E881F9819F012F5F3F4F398304
:1007D0002883108306C0E885F985812F0995892B28
:1007E00029F72E813F812F5F3F4F3F832E83812F3B
:1007F000902FDF91CF911F910F910895FA01AA27B1
:10080000283051F1203181F1E8946F936E7F6E5F53
:100810007F4F8F4F9F4FAF4FB1E03ED0B4E03CD001
:10082000670F781F891F9A1FA11D680F791F8A1FE4
:10083000911DA11D6A0F711D811D911DA11D20D04B
:1008400009F468943F912AE0269F11243019305D05
:100850003193DEF6CF010895462F4770405D4193F6
:10086000B3E00FD0C9F7F6CF462F4F70405D4A3343
:1008700018F0495D31FD4052419302D0A9F7EACF0B
:10088000B4E0A6959795879577956795BA95C9F73A
:1008900000976105710508959B01AC010A2E06942D
:1008A0005795479537952795BA95C9F7620F731FE6
:1008B000841F951FA01D08952F923F924F925F9223
:1008C0006F927F928F929F92AF92BF92CF92DF9260
:1008D000EF92FF920F931F93CF93DF93CDB7DEB7C5
:1008E000CA1BDB0B0FB6F894DEBF0FBECDBF099459
:1008F0002A88398848885F846E847D848C849B84B0
:10090000AA84B984C884DF80EE80FD800C811B81BD
:10091000AA81B981CE0FD11D0FB6F894DEBF0FBEEC
:0A092000CDBFED010895F894FFCF5C
:10092A00000000030000000053005A00000000000D
:10093A0000010000000000005A0000000000000250
:10094A000000000053000000000048656C6C6F2036
:10095A00776F726C64210D00596F752077726F740E
:08096A00652025630D0A000061
:00000001FF
