:100000000C9434000C9451000C9451000C94510049
:100010000C9451000C9451000C9451000C9451001C
:100020000C9451000C9451000C9451000C9451000C
:100030000C9451000C9451000C9451000C945100FC
:100040000C9451000C9451000C9451000C945100EC
:100050000C9451000C9451000C9451000C945100DC
:100060000C9451000C94510011241FBECFEFD8E026
:10007000DEBFCDBF11E0A0E0B1E0E6EDF9E002C0E7
:1000800005900D92A439B107D9F711E0A4E9B1E0C8
:1000900001C01D92AA39B107E1F70E9499010C94A1
:1000A000E9040C9400009091C00095FFFCCF809370
:1000B000C60008958091C00087FFFCCF8091C600E4
:1000C00008951092C50080E18093C400E0ECF0E058
:1000D00080818260808386E08093C20088E1809383
:1000E000C10008958AE291E00E940D021092B900C9
:1000F0008CE08093B80084E08093BC00089584EA8B
:100100008093BC008091BC0087FFFCCF089584E9F8
:100110008093BC0008958093BB0084E88093BC006A
:100120008091BC0087FFFCCF089584EC8093BC00D5
:100130008091BC0087FFFCCF8091BB00089584E8CC
:100140008093BC008091BC0087FFFCCF8091BB00F6
:1001500008958091B900887F0895CF93C82F83E3D5
:1001600091E00E940D0294EA9093BC009091BC0033
:1001700097FFFCCF9091B900987F983019F08FEFDE
:10018000CF91089582E491E00E940D028AE180936C
:10019000BB0084E88093BC009091BC0097FFFCCF2B
:1001A0008091B900887F883151F78EE491E00E94F8
:1001B0000D02C093BB0084E88093BC008091BC001A
:1001C00087FFFCCF8091B900887F8831C1F68EE42B
:1001D00091E00E940D0284E98093BC0080E0D0CFC2
:1001E000CF93DF93EC018AE591E00E940D0284EA4F
:1001F0008093BC008091BC0087FFFCCF8091B90048
:10020000887F883021F08FEFDF91CF91089582E4CD
:1002100091E00E940D028BE18093BB0084E8809303
:10022000BC008091BC0087FFFCCF8091B900887F23
:10023000883149F78EE491E00E940D0284E88093B2
:10024000BC008091BC0087FFFCCF8091BB008883FD
:100250008091B900887F8831B1F688E691E00E94EC
:100260000D0284E98093BC0080E0CECF22E380E0E1
:1002700090E0FC013197F1F7FC013197F1F7FC01B7
:100280003197F1F72150A9F7089581E690E0909316
:1002900089008093880022E380E090E0FC013197A0
:1002A000F1F7FC013197F1F7FC013197F1F721509B
:1002B000A9F708958CE391E09093890080938800DA
:1002C00022E380E090E0FC013197F1F7FC013197E7
:1002D000F1F7FC013197F1F72150A9F7089589EA68
:1002E00091E0909389008093880022E380E090E081
:1002F000FC013197F1F7FC013197F1F7FC013197DF
:10030000F1F72150A9F7089587E192E090938900D1
:100310008093880022E380E090E0FC013197F1F7C0
:10032000FC013197F1F7FC013197F1F72150A9F762
:100330000895CF93DF931F92CDB7DEB71092C5001B
:1003400080E18093C4008091C00082608093C000EF
:1003500086E08093C20088E18093C1008CE191E047
:1003600090939701809396018EE091E09093950190
:10037000809394018AE291E00E940D021092B900EC
:100380008CE08093B80084E08093BC0084B18360EB
:1003900084B9289A299883E791E00E940D0281E8A8
:1003A000E82E81E0F82E00E010E0DD24D39481E512
:1003B0000E94AD00CE0101960E94F00089811F923B
:1003C0008F93FF92EF920E94F9010F900F900F9080
:1003D0000F9022E3C8010197F1F7C8010197F1F7E7
:1003E000C8010197F1F72150A9F785B18D2585B98D
:1003F000DECFA0E0B0E0EFEFF1E00C94C204FE012C
:10040000359661917191AF0180919601909197011C
:100410000E943A02E2E00C94DE040F931F93CF9304
:10042000DF93E0919601F0919701238121FF1BC09A
:10043000EC0100E010E089916091960170919701C4
:10044000DB011896ED91FC911997882331F00995FD
:10045000892B89F30FEF1FEFEECF8AE00995892BE7
:1004600011F4C80102C08FEF9FEFDF91CF911F9170
:100470000F910895ACE0B0E0E0E4F2E00C94B20437
:100480007C016B018A01FC0117821682838181FF46
:10049000BDC1CE0101964C01F7019381F60193FD98
:1004A000859193FF81916F01882309F4ABC1853257
:1004B00039F493FD859193FF81916F01853229F481
:1004C000B70190E00E942204E7CF512C312C20E0AC
:1004D0002032A0F48B3269F030F4803259F083324C
:1004E00069F420612CC08D3239F0803339F42160F9
:1004F00026C02260246023C0286021C027FD27C0B9
:1005000030ED380F3A3078F426FF06C0FAE05F9EEF
:10051000300D1124532E13C08AE0389E300D112463
:10052000332E20620CC08E3221F426FD6BC1206474
:1005300006C08C3611F4206802C0883641F4F601FA
:1005400093FD859193FF81916F018111C1CF982F08
:100550009F7D9554933028F40C5F1F4FFFE3F98380
:100560000DC0833631F0833771F0833509F05BC0FD
:1005700022C0F801808189830E5F1F4F4424439479
:10058000512C540115C03801F2E06F0E711CF801B6
:10059000A080B18026FF03C0652D70E002C06FEF20
:1005A0007FEFC5012C870E9417042C0183012C8545
:1005B0002F77222E17C03801F2E06F0E711CF80160
:1005C000A080B18026FF03C0652D70E002C06FEFF0
:1005D0007FEFC5012C870E940C042C012C8520681C
:1005E000222E830123FC1BC0832D90E04816590660
:1005F000B0F4B70180E290E00E9422043A94F4CF74
:10060000F50127FC859127FE81915F01B70190E0FC
:100610000E94220431103A94F1E04F1A510841141B
:10062000510471F7E5C0843611F0893639F5F801C7
:1006300027FF07C060817181828193810C5F1F4F0A
:1006400008C060817181882777FD8095982F0E5FA3
:100650001F4F2F76B22E97FF09C090958095709509
:1006600061957F4F8F4F9F4F2068B22E2AE030E078
:10067000A4010E945404A82EA81844C0853729F468
:100680002F7EB22E2AE030E025C0F22FF97FBF2E58
:100690008F36C1F018F4883579F0B4C0803719F07E
:1006A000883721F0AFC02F2F2061B22EB4FE0DC0CD
:1006B0008B2D8460B82E09C024FF0AC09F2F96603E
:1006C000B92E06C028E030E005C020E130E002C0CD
:1006D00020E132E0F801B7FE07C0608171818281BC
:1006E00093810C5F1F4F06C06081718180E090E0B4
:1006F0000E5F1F4FA4010E945404A82EA818FB2DC2
:10070000FF77BF2EB6FE0BC02B2D2E7FA51450F405
:10071000B4FE0AC0B2FC08C02B2D2E7E05C07A2C78
:100720002B2D03C07A2C01C0752C24FF0DC0FE01B7
:10073000EA0DF11D8081803311F4297E09C022FF6A
:1007400006C07394739404C0822F867809F0739462
:1007500023FD13C020FF06C05A2C731418F4530C49
:100760005718732C731468F4B70180E290E02C875B
:100770000E94220473942C85F5CF731410F437185B
:1007800001C0312C24FF12C0B70180E390E02C8718
:100790000E9422042C8522FF17C021FF03C088E598
:1007A00090E002C088E790E0B7010CC0822F867805
:1007B00059F021FD02C080E201C08BE227FD8DE2ED
:1007C000B70190E00E942204A51438F4B70180E339
:1007D00090E00E9422045A94F7CFAA94F401EA0D03
:1007E000F11D8081B70190E00E942204A110F5CF95
:1007F000332009F451CEB70180E290E00E94220438
:100800003A94F6CFF7018681978102C08FEF9FEF70
:100810002C96E2E10C94CE04FC01059061507040EE
:100820000110D8F7809590958E0F9F1F0895FC01B9
:100830006150704001900110D8F7809590958E0F0F
:100840009F1F08950F931F93CF93DF93182F092FA6
:10085000EB018B8181FD03C08FEF9FEF20C082FFF2
:1008600010C04E815F812C813D81421753077CF47B
:10087000E881F9819F012F5F3F4F398328831083DF
:1008800006C0E885F985812F0995892B29F72E81E6
:100890003F812F5F3F4F3F832E83812F902FDF912A
:1008A000CF911F910F910895FA01AA27283051F195
:1008B000203181F1E8946F936E7F6E5F7F4F8F4F91
:1008C0009F4FAF4FB1E03ED0B4E03CD0670F781FF0
:1008D000891F9A1FA11D680F791F8A1F911DA11DD5
:1008E0006A0F711D811D911DA11D20D009F468940E
:1008F0003F912AE0269F11243019305D3193DEF6B6
:10090000CF010895462F4770405D4193B3E00FD06B
:10091000C9F7F6CF462F4F70405D4A3318F0495D56
:1009200031FD4052419302D0A9F7EACFB4E0A69539
:100930009795879577956795BA95C9F7009761055B
:10094000710508959B01AC010A2E069457954795B1
:1009500037952795BA95C9F7620F731F841F951FA6
:10096000A01D08952F923F924F925F926F927F92B7
:100970008F929F92AF92BF92CF92DF92EF92FF92AF
:100980000F931F93CF93DF93CDB7DEB7CA1BDB0B5B
:100990000FB6F894DEBF0FBECDBF09942A88398800
:1009A00048885F846E847D848C849B84AA84B98407
:1009B000C884DF80EE80FD800C811B81AA81B98113
:1009C000CE0FD11D0FB6F894DEBF0FBECDBFED0127
:0609D0000895F894FFCF2A
:1009D600000000030000000053005A000000000061
:1009E60000010000000000005A00000000000002A4
:1009F6000000000053000000000054574920696EB3
:100A0600697400696E20454557726974654461745E
:100A16006100616674657220737461727400616648
:100A260074657220777269746500696E2045455257
:100A36006561644461746100616674657220726503
:100A460061640048656C6C6F20776F726C64210D71
:100A56000050726F647563742049442069732025C1
:040A6600630A00001F
:00000001FF
