:100000000C9434000C9451000C9451000C94510049
:100010000C9451000C9451000C9451000C9451001C
:100020000C9451000C9451000C9451000C9451000C
:100030000C9451000C9451000C9451000C945100FC
:100040000C9451000C9451000C9451000C945100EC
:100050000C9451000C9451000C9451000C945100DC
:100060000C9451000C94510011241FBECFEFD8E026
:10007000DEBFCDBF13E0A0E0B1E0E8EEFFE002C0DC
:1000800005900D92AE32B107D9F713E0AEE2B3E0BE
:1000900001C01D92AC33B107E1F70E9435020C9408
:1000A000F2070C9400009091C00095FFFCCF809364
:1000B000C60008958091C00087FFFCCF8091C600E4
:1000C00008951092C50080E18093C400E0ECF0E058
:1000D00080818260808386E08093C20088E1809383
:1000E000C100089580E391E00E9416051092B900C6
:1000F0008CE08093B800ECEBF0E084E080838081BA
:100100001F928F9380E491E09F938F930E9402054A
:100110000F900F900F900F9008958CE591E00E9442
:10012000160584EA8093BC009091BC001F928F93C7
:100130001F929F938CE691E09F938F930E940205FC
:100140000F900F900F900F900F900F908091BC0028
:1001500087FFFCCF8091B900887F883021F085E847
:1001600091E00E94160587E991E00C94160589EA52
:1001700091E00E94160584E98093BC0088EB91E031
:100180000C941605CF93C82F89EC91E00E941605B8
:10019000C093BB0084E88093BC008091BC0087FFC3
:1001A000FCCF8091B900887F883121F08DED91E0FE
:1001B0000E94160582EF91E0CF910C941605CF9323
:1001C000C82F88E092E00E941605C093BB0084E827
:1001D0008093BC008091BC0087FFFCCF8091B90068
:1001E000887F803421F08CE192E00E94160581E343
:1001F00092E0CF910C941605CF93C82F87E492E03C
:100200000E941605C093BB0084E88093BC008091D7
:10021000BC0087FFFCCF8091B900887F883221F035
:100220008BE592E00E94160580E792E0CF910C9456
:10023000160586E892E00E94160584EC8093BC00C7
:100240008091BC0087FFFCCF88E992E00E941605F0
:100250008091BB0008958091B900887F0895CF9365
:10026000C82F8CEA92E00E9416050E948D0086E25B
:100270000E94C2008C2F0E94FC000E94B7008FEBEE
:1002800092E00E94160580E0CF910895CF93DF930E
:10029000EC0184ED92E00E9416050E948D0087E239
:1002A0000E94DF000E94190188838091B900887F35
:1002B000803521F086EE92E00E9416050E94B7007C
:1002C00089EF92E09F938F930E9402050F900F9009
:1002D00080E0DF91CF9108952FEF83ED90E32150DF
:1002E00080409040E1F700C00000089588E097E06A
:1002F00090938B0080938A002FEF83ED90E3215041
:1003000080409040E1F700C00000089588EB9BE03A
:1003100090938B0080938A002FEF83ED90E3215020
:1003200080409040E1F700C00000089588ED9EE015
:1003300090938B0080938A002FEF83ED90E3215000
:1003400080409040E1F700C00000089584E991E109
:1003500090938B0080938A002FEF83ED90E32150E0
:1003600080409040E1F700C0000008952FE0AC010C
:10037000249FC001259F900D1124885F984F909372
:100380008B0080938A005FEF83ED90E351508040B3
:100390009040E1F700C00000089597FF08959195FF
:1003A000819591090895880F991FBC01660F771FE9
:1003B000660F771F660F771F680F791F882777FDF5
:1003C0008095982F0E944F0320E030E040E251E4F6
:1003D0000E94B4020E941C03CB010895FFCF20911C
:1003E0002E0330912F03AC01421B530B9A0157FD92
:1003F00036C02531310534F5209130033091310379
:1004000090932F0380932E03232B69F5880F991F58
:10041000BC01660F771F660F771F660F771F680F87
:10042000791F882777FD8095982F0E944F0320E041
:1004300030E040E251E40E94B4020E941C03DC015F
:10044000CB01089521E030E0409130035091310319
:10045000241B350B3093310320933003D1CF3195DA
:1004600021953109C6CF0E94EE01F8941092C50083
:1004700080E18093C4008091C00082608093C000BE
:1004800086E08093C20088E18093C1008CE191E016
:1004900090933903809338038EE091E09093370373
:1004A0008093360384B1836084B9289A29980E9486
:1004B000720082EA809380008AE1809381008FE35A
:1004C0009CE99093870080938600229A78948CE030
:1004D00093E00E94160588E090E00E94DB037C0117
:1004E000C0E0D0E00AE113E088E0C82E87E0D82E13
:1004F0009FE0B92E81E80E942F01C7010E944601AA
:10050000F70180811F928F931F930F930E94020522
:10051000D0928B00C0928A00FFEF23ED80E3F15070
:1005200020408040E1F700C00000BC9EC001BD9E9D
:10053000900D1124885F984F90938B0080938A00D0
:100540009FEFE3EDF0E39150E040F040E1F700C0B1
:1005500000006E960F900F900F900F90C23DD10546
:1005600049F6C0E0D0E0C6CF0CD0EBC0E3D040F0FD
:10057000DAD030F021F45F3F19F0CCC0511115C131
:10058000CFC0F0D098F39923C9F35523B1F3951B4D
:10059000550BBB27AA2762177307840738F09F5FA4
:1005A0005F4F220F331F441FAA1FA9F333D00E2E13
:1005B0003AF0E0E830D091505040E695001CCAF780
:1005C00029D0FE2F27D0660F771F881FBB1F261745
:1005D00037074807AB07B0E809F0BB0B802DBF0118
:1005E000FF2793585F4F2AF09E3F510568F092C055
:1005F000DCC05F3FECF3983EDCF38695779567951A
:10060000B795F7959F5FC9F7880F911D96958795C8
:1006100097F90895E1E0660F771F881FBB1F6217E7
:1006200073078407BA0720F0621B730B840BBA0BA5
:10063000EE1F88F7E095089504D06894B111B5C015
:10064000089598D088F09F5790F0B92F9927B75107
:10065000A0F0D1F0660F771F881F991F1AF0BA9586
:10066000C9F712C0B13081F09FD0B1E008959CC0AD
:10067000672F782F8827B85F39F0B93FCCF386957C
:1006800077956795B395D9F73EF4909580957095D9
:1006900061957F4F8F4F9F4F0895E89409C097FB56
:1006A0003EF490958095709561957F4F8F4F9F4F49
:1006B0009923A9F0F92F96E9BB279395F69587958D
:1006C00077956795B795F111F8CFFAF4BB0F11F450
:1006D00060FF1BC06F5F7F4F8F4F9F4F16C08823F7
:1006E00011F096E911C0772321F09EE8872F762F2D
:1006F00005C0662371F096E8862F70E060E02AF06E
:100700009A95660F771F881FDAF7880F9695879559
:1007100097F9089597F99F6780E870E060E0089581
:100720009FEF80EC089500240A9416161706180609
:100730000906089500240A941216130614060506E5
:100740000895092E0394000C11F4882352F0BB0F76
:1007500040F4BF2B11F460FF04C06F5F7F4F8F4FD9
:100760009F4F089557FD9058440F551F59F05F3F14
:1007700071F04795880F97FB991F61F09F3F79F0C3
:1007800087950895121613061406551FF2CF469545
:10079000F1DF08C0161617061806991FF1CF8695C7
:1007A0007105610508940895E894BB2766277727AB
:1007B000CB0197F90895CF93DF938230910510F420
:1007C00082E090E0E0913403F091350320E030E0E6
:1007D000A0E0B0E0309739F14081518148175907C6
:1007E000B8F04817590771F482819381109729F066
:1007F00013969C938E9312972CC0909335038093FD
:10080000340327C02115310531F04217530718F082
:10081000A901DB0101C0EF019A01BD01DF010280E6
:10082000F381E02DD7CF21153105F9F0281B390BC5
:100830002430310580F48A819B816115710521F096
:10084000FB019383828304C0909335038093340328
:10085000FE01329644C0FE01E20FF31F8193919393
:1008600022503109398328833AC0209132033091D4
:100870003303232B41F420912C0130912D0130932F
:1008800033032093320320912A0130912B0121154B
:10089000310541F42DB73EB740912E0150912F0103
:1008A000241B350BE0913203F0913303E217F30779
:1008B000A0F42E1B3F0B2817390778F0AC014E5FD0
:1008C0005F4F2417350748F04E0F5F1F50933303D7
:1008D000409332038193919302C0E0E0F0E0CF01B6
:1008E000DF91CF910895CF93DF93009709F487C0EC
:1008F000FC01329713821282C0913403D0913503E8
:10090000209781F420813181280F391F8091320393
:10091000909133038217930779F5F0933303E093B3
:1009200032036DC0DE0120E030E0AE17BF0750F4A7
:1009300012964D915C9113979D014115510509F156
:10094000DA01F3CFB383A28340815181840F951FD5
:100950008A179B0771F48D919C911197840F951FB5
:1009600002969183808312968D919C911397938325
:1009700082832115310529F4F0933503E093340384
:100980003EC0D9011396FC93EE9312974D915D9161
:10099000A40FB51FEA17FB0779F480819181840FBA
:1009A000951F0296D90111969C938E938281938113
:1009B00013969C938E931297E0E0F0E08A819B81DE
:1009C000009719F0FE01EC01F9CFCE0102962881C3
:1009D0003981820F931F20913203309133032817FE
:1009E000390769F4309729F41092350310923403D3
:1009F00002C013821282D0933303C0933203DF917B
:100A0000CF910895A0E0B0E0E8E0F5E00C94CB07CA
:100A1000FE01359661917191AF01809138039091FB
:100A200039030E944305E2E00C94E7070F931F93FC
:100A3000CF93DF93E0913803F0913903238121FFB5
:100A40001BC0EC0100E010E08991609138037091C7
:100A50003903DB011896ED91FC911997882331F049
:100A60000995892B89F30FEF1FEFEECF8AE00995E7
:100A7000892B11F4C80102C08FEF9FEFDF91CF9156
:100A80001F910F910895ACE0B0E0E9E4F5E00C941B
:100A9000BB077C016B018A01FC01178216828381EE
:100AA00081FFBDC1CE0101964C01F7019381F60192
:100AB00093FD859193FF81916F01882309F4ABC168
:100AC000853239F493FD859193FF81916F018532D1
:100AD00029F4B70190E00E942B07E7CF512C312C6D
:100AE00020E02032A0F48B3269F030F4803259F0EB
:100AF000833269F420612CC08D3239F0803339F4AF
:100B0000216026C02260246023C0286021C027FD08
:100B100027C030ED380F3A3078F426FF06C0FAE0EF
:100B20005F9E300D1124532E13C08AE0389E300D85
:100B30001124332E20620CC08E3221F426FD6BC1AD
:100B4000206406C08C3611F4206802C0883641F457
:100B5000F60193FD859193FF81916F018111C1CFC2
:100B6000982F9F7D9554933028F40C5F1F4FFFE31F
:100B7000F9830DC0833631F0833771F0833509F086
:100B80005BC022C0F801808189830E5F1F4F44241F
:100B90004394512C540115C03801F2E06F0E711CC2
:100BA000F801A080B18026FF03C0652D70E002C06F
:100BB0006FEF7FEFC5012C870E9420072C01830176
:100BC0002C852F77222E17C03801F2E06F0E711C92
:100BD000F801A080B18026FF03C0652D70E002C03F
:100BE0006FEF7FEFC5012C870E9415072C012C8524
:100BF0002068222E830123FC1BC0832D90E0481621
:100C00005906B0F4B70180E290E00E942B073A94B5
:100C1000F4CFF50127FC859127FE81915F01B70193
:100C200090E00E942B0731103A94F1E04F1A5108DE
:100C30004114510471F7E5C0843611F0893639F555
:100C4000F80127FF07C060817181828193810C5F69
:100C50001F4F08C060817181882777FD8095982F8C
:100C60000E5F1F4F2F76B22E97FF09C0909580958B
:100C7000709561957F4F8F4F9F4F2068B22E2AE06D
:100C800030E0A4010E945D07A82EA81844C0853753
:100C900029F42F7EB22E2AE030E025C0F22FF97F12
:100CA000BF2E8F36C1F018F4883579F0B4C0803784
:100CB00019F0883721F0AFC02F2F2061B22EB4FE7B
:100CC0000DC08B2D8460B82E09C024FF0AC09F2F51
:100CD0009660B92E06C028E030E005C020E130E083
:100CE00002C020E132E0F801B7FE07C060817181E7
:100CF000828193810C5F1F4F06C06081718180E00B
:100D000090E00E5F1F4FA4010E945D07A82EA81857
:100D1000FB2DFF77BF2EB6FE0BC02B2D2E7FA5140B
:100D200050F4B4FE0AC0B2FC08C02B2D2E7E05C0C4
:100D30007A2C2B2D03C07A2C01C0752C24FF0DC0FA
:100D4000FE01EA0DF11D8081803311F4297E09C076
:100D500022FF06C07394739404C0822F867809F032
:100D6000739423FD13C020FF06C05A2C731418F48B
:100D7000530C5718732C731468F4B70180E290E099
:100D80002C870E942B0773942C85F5CF731410F4D5
:100D9000371801C0312C24FF12C0B70180E390E066
:100DA0002C870E942B072C8522FF17C021FF03C030
:100DB00088E590E002C088E790E0B7010CC0822F80
:100DC000867859F021FD02C080E201C08BE227FD48
:100DD0008DE2B70190E00E942B07A51438F4B7010B
:100DE00080E390E00E942B075A94F7CFAA94F40175
:100DF000EA0DF11D8081B70190E00E942B07A11040
:100E0000F5CF332009F451CEB70180E290E00E9483
:100E10002B073A94F6CFF7018681978102C08FEFB6
:100E20009FEF2C96E2E10C94D707FC0105906150EE
:100E300070400110D8F7809590958E0F9F1F0895F0
:100E4000FC016150704001900110D8F78095909599
:100E50008E0F9F1F08950F931F93CF93DF93182F2B
:100E6000092FEB018B8181FD03C08FEF9FEF20C025
:100E700082FF10C04E815F812C813D814217530754
:100E80007CF4E881F9819F012F5F3F4F39832883EC
:100E9000108306C0E885F985812F0995892B29F7EC
:100EA0002E813F812F5F3F4F3F832E83812F902FD5
:100EB000DF91CF911F910F910895FA01AA27283051
:100EC00051F1203181F1E8946F936E7F6E5F7F4F17
:100ED0008F4F9F4FAF4FB1E03ED0B4E03CD0670F93
:100EE000781F891F9A1FA11D680F791F8A1F911DE6
:100EF000A11D6A0F711D811D911DA11D20D009F436
:100F000068943F912AE0269F11243019305D319377
:100F1000DEF6CF010895462F4770405D4193B3E060
:100F20000FD0C9F7F6CF462F4F70405D4A3318F007
:100F3000495D31FD4052419302D0A9F7EACFB4E0B8
:100F4000A6959795879577956795BA95C9F7009770
:100F50006105710508959B01AC010A2E0694579511
:100F6000479537952795BA95C9F7620F731F841F68
:100F7000951FA01D08952F923F924F925F926F92FE
:100F80007F928F929F92AF92BF92CF92DF92EF9219
:100F9000FF920F931F93CF93DF93CDB7DEB7CA1B9A
:100FA000DB0B0FB6F894DEBF0FBECDBF09942A88C5
:100FB000398848885F846E847D848C849B84AA846D
:100FC000B984C884DF80EE80FD800C811B81AA81FA
:100FD000B981CE0FD11D0FB6F894DEBF0FBECDBFC5
:080FE000ED010895F894FFCF24
:100FE800000000030000000053005A000000000049
:100FF80000010000000000005A000000000000028C
:101008000000000053000000000000003C03200026
:10101800456E7465722054574920696E69740D00D5
:101028004C656176696E672054574920696E69740A
:101038002C20545743523D25640D0A00456E7465B3
:10104800722054574953746172740D0054574352B7
:101058003D2564202873686F756C642062652025BF
:1010680064290D0A0054574920537461727420662C
:1010780061696C65640D004C656176696E67205422
:10108800574953746172740D00456E74657220542B
:10109800574953746F700D004C656176696E67200F
:1010A80054574953746F700D00456E74657220541F
:1010B8005749534C415757726974650D0054574945
:1010C800534C41575772697465206661696C656451
:1010D8000D004C656176696E6720545749534C4141
:1010E8005757726974650D00456E746572205457C0
:1010F80049534C415257726974650D00545749530E
:101108004C41525772697465206661696C65640D5B
:10111800004C656176696E6720545749534C4152BB
:1011280057726974650D00456E746572205457498D
:101138004461746157726974650D0054574944617C
:1011480074615772697465206661696C65640D0025
:101158004C656176696E67205457494461746157DC
:10116800726974650D00456E746572205457495252
:1011780065616441434B0D004C656176696E67207B
:101188005457495265616441434B0D00456E74657F
:10119800722045455772697465446174610D004C4D
:1011A800656176696E672045455772697465446163
:1011B80074610D00456E7465722045455265616421
:1011C800446174610D005457495265616441434B51
:1011D800206661696C65640D004C656176696E67AF
:1011E80020454552656164446174610048656C6CD2
:1011F8006F20776F726C64210D0050726F64756395
:0E120800742049442069732025630D0A0000FC
:00000001FF
