:100000000C9434000C9451000C9451000C94510049
:100010000C9451000C9451000C9451000C9451001C
:100020000C9451000C9451000C9451000C9451000C
:100030000C9451000C9451000C9451000C945100FC
:100040000C9451000C9451000C9451000C945100EC
:100050000C9451000C9451000C9451000C945100DC
:100060000C9451000C94510011241FBECFEFD8E026
:10007000DEBFCDBF11E0A0E0B1E0ECEDF7E002C0E3
:1000800005900D92A834B107D9F711E0A8E4B1E0CA
:1000900001C01D92AE34B107E1F70E9472000C94CA
:1000A000EC030C9400009091C00095FFFCCF80936E
:1000B000C60008958091C00087FFFCCF8091C600E4
:1000C00008951092C50080E18093C400E0ECF0E058
:1000D00080818260808386E08093C20088E1809383
:1000E000C10008951092C50080E18093C400809102
:1000F000C00082608093C00086E08093C20088E1E7
:100100008093C1008CE191E090934B0180934A0170
:100110008EE091E0909349018093480184B183601F
:1001200084B9289A29988AE291E00E940901C8E3DB
:10013000D1E011E080914801909149010E94B20004
:10014000282F332727FD30953F938F93DF93CF934D
:100150000E94F20085B1812785B90F900F900F9012
:100160000F90E8CFCF93DF93EC013B8130FF34C099
:1001700036FF0AC03F7B3B838E819F8101969F8320
:100180008E832A8130E02AC032FF0FC0E881F981D6
:100190008081992787FD9095009719F430623B8301
:1001A0001BC03196F983E8830EC0EA85FB8509956B
:1001B00097FF09C02B81019611F480E101C080E214
:1001C000822B8B8309C02E813F812F5F3F4F3F835E
:1001D0002E839C01332702C02FEF3FEFC901DF912F
:1001E000CF910895A2E0B0E0E8EFF0E00C94C503F1
:1001F000FE01379661917191FA83E983AF01809195
:100200004A0190914B010E9438012296E2E00C9441
:10021000E1030F931F93CF93DF938C01E0914A0189
:10022000F0914B01838181FF1BC0C0E0D0E005C08D
:100230000995892B11F0CFEFDFEFF80181918F0144
:1002400060914A0170914B01DB011896ED91FC9190
:1002500019978111EDCF8AE00995892B09F402C025
:10026000CFEFDFEFCE01DF91CF911F910F91089576
:10027000ACE0B0E0EEE3F1E00C94B5037C016B017F
:100280008A01FC0117821682838181FFC7C18824FD
:100290008394912C8C0E9D1EF7019381F60193FDA2
:1002A000859193FF81916F01882309F4B3C1853251
:1002B00039F493FD859193FF81916F01853229F483
:1002C000B70190E00E942B03E7CF712C312C20E086
:1002D0002032A8F48B3261F028F4803251F083325E
:1002E00071F40BC08D3239F0803349F4216028C09D
:1002F0002260246025C0286023C0206121C027FD22
:1003000027C0382F30533A3078F426FF06C0FAE081
:100310007F9E300D1124732E13C08AE0389E300D5D
:100320001124332E20620CC08E3221F426FD72C1BE
:10033000206406C08C3611F4206802C0883641F46F
:10034000F60193FD859193FF81916F018111C0CFDB
:10035000982F9554933018F09052933028F40C5FF6
:100360001F4FFFE3F9830DC0833631F0833771F0FF
:10037000833509F05EC023C0F801808189830E5F58
:100380001F4F66246394712C540115C02801F2E0BC
:100390004F0E511CF801A080B18026FF03C0672DCD
:1003A00070E002C06FEF7FEFC5012C870E94200331
:1003B0003C0182012C856FE7262E222218C02801DD
:1003C000F2E04F0E511CF801A080B18026FF03C05F
:1003D000672D70E002C06FEF7FEFC5012C870E9490
:1003E00015033C012C8550E8252E222A820123FC8E
:1003F0001CC006C0B70180E290E00E942B033A9433
:10040000832D90E068167906A8F30FC0F50127FC4C
:10041000859127FE81915F01B70190E00E942B0337
:1004200031103A94F1E06F1A71086114710471F798
:10043000EEC0843611F0893641F5F80127FF07C078
:1004400060817181828193810C5F1F4F08C0608140
:100450007181882777FD8095982F0E5F1F4F4FE69B
:10046000642E622297FF09C09095809570956195E2
:100470007F4F8F4F9F4FF0E86F2A2AE030E0A401B2
:100480000E945703A82EA81844C0853731F43FEEC8
:10049000B32EB2222AE030E024C099EFB92EB22266
:1004A0008F36B9F020F4883509F0B4C00DC080371C
:1004B00021F0883709F0AEC002C020E1B22AB4FEB4
:1004C0000BC084E0B82A08C024FF09C0E6E0BE2AB9
:1004D00006C028E030E005C020E130E002C020E1A5
:1004E00032E0F801B7FE07C060817181828193819B
:1004F0000C5F1F4F06C06081718180E090E00E5F4D
:100500001F4FA4010E945703A82EA8188FE7682E3A
:100510006B2066FE0BC0362D3E7FA71450F464FEA0
:100520000AC062FC08C0362D3E7E05C0BA2C362DAE
:1005300003C0BA2C01C0B72C34FF0DC0FE01EA0D78
:10054000F11D8081803311F4397E09C032FF06C06D
:10055000B394B39404C0832F867809F0B39433FD29
:1005600014C030FF0FC07A2CB31460F4730C7B18E6
:10057000B32C08C0B70180E290E03C870E942B03B7
:10058000B3943C85B314B0F304C0B31410F43B1817
:1005900001C0312C34FF12C0B70180E390E03C87EA
:1005A0000E942B033C8532FF1EC031FF03C088E54B
:1005B00090E002C088E790E0B7010CC0832F8678F6
:1005C00091F031FD02C080E201C08BE237FD8DE287
:1005D000B70190E00E942B0306C0B70180E390E0D2
:1005E0000E942B037A94A714C0F3AA94F401EA0D95
:1005F000F11DB701808190E00E942B03A110F5CF7F
:1006000006C0B70180E290E00E942B033A943110BB
:10061000F8CF42CEF7012681378102C02FEF3FEF9E
:10062000C9012C96E2E10C94D103FC0105906150C4
:1006300070400110D8F7809590958E0F9F1F0895F8
:10064000FC016150704001900110D8F780959095A1
:100650008E0F9F1F08950F931F93CF93DF938C01ED
:10066000EB018B8181FD03C00FEF1FEF1AC082FFEA
:100670000DC02E813F818C819D812817390764F43C
:10068000E881F9810193F983E88306C0E885F9855B
:10069000802F0995892B41F78E819F8101969F8339
:1006A0008E83C801DF91CF911F910F910895FA01B8
:1006B000AA27283051F1203181F1E8946F936E7FA1
:1006C0006E5F7F4F8F4F9F4FAF4FB1E03ED0B4E092
:1006D0003CD0670F781F891F9A1FA11D680F791FD3
:1006E0008A1F911DA11D6A0F711D811D911DA11DE4
:1006F00020D009F468943F912AE0269F11243019F4
:10070000305D3193DEF6CF010895462F4770405D8E
:100710004193B3E00FD0C9F7F6CF462F4F70405D3D
:100720004A3318F0495D31FD4052419302D0A9F798
:10073000EACFB4E0A6959795879577956795BA9592
:10074000C9F700976105710508959B01AC010A2E58
:1007500006945795479537952795BA95C9F7620F2F
:10076000731F841F951FA01D08952F923F924F92D3
:100770005F926F927F928F929F92AF92BF92CF9231
:10078000DF92EF92FF920F931F93CF93DF93CDB73A
:10079000DEB7CA1BDB0B0FB6F894DEBF0FBECDBFB2
:1007A00009942A88398848885F846E847D848C8483
:1007B0009B84AA84B984C884DF80EE80FD800C818C
:1007C0001B81AA81B981CE0FD11D0FB6F894DEBF6F
:0C07D0000FBECDBFED010895F894FFCFDF
:1007DC00000000030000000053005A00000000005D
:1007EC0000010000000000005A00000000000002A0
:1007FC000000000053000000000048656C6C6F2086
:10080C00776F726C64210D00596F752077726F745D
:08081C00652025630D0A0000B0
:00000001FF
