:100000000C9434000C9451000C9451000C94510049
:100010000C9451000C9451000C9451000C9451001C
:100020000C9451000C9451000C9451000C9451000C
:100030000C9451000C9451000C9451000C945100FC
:100040000C9451000C9451000C9451000C945100EC
:100050000C9451000C9451000C9451000C945100DC
:100060000C9451000C94510011241FBECFEFD8E026
:10007000DEBFCDBF12E0A0E0B1E0E8E0FEE002C0EC
:1000800005900D92AC3FB107D9F713E0ACEFB2E0A9
:1000900001C01D92A630B107E1F70E94F6010C9451
:1000A00002070C9400009091C00095FFFCCF809354
:1000B000C60008958091C00087FFFCCF8091C600E4
:1000C00008951092C50080E18093C400E0ECF0E058
:1000D00080818260808386E08093C20088E1809383
:1000E000C10008958AE291E00E9426041092B900AE
:1000F0008CE08093B800ECEBF0E084E080838081BA
:100100001F928F938AE391E09F938F930E94120432
:100110000F900F900F900F90089586E591E00E9448
:10012000260484EA8093BC008091BC0087FFFCCF4A
:100130008091B900887F883021F086E691E00E94A6
:10014000260488E791E00C9426048AE891E00E9456
:10015000260484E98093BC0089E991E00C9426048C
:10016000CF93C82F8AEA91E00E942604C093BB0077
:1001700084E88093BC008091BC0087FFFCCF809115
:10018000B900887F883121F08EEB91E00E9426042F
:1001900083ED91E0CF910C942604CF93C82F89EE84
:1001A00091E00E942604C093BB0084E88093BC00C9
:1001B0008091BC0087FFFCCF8091B900887F80349C
:1001C00021F08DEF91E00E94260482E192E0CF9130
:1001D0000C942604CF93C82F88E292E00E94260454
:1001E000C093BB0084E88093BC008091BC0087FF73
:1001F000FCCF8091B900887F883221F08CE392E0B7
:100200000E94260481E592E0CF910C94260487E6B3
:1002100092E00E94260484EC8093BC008091BC0094
:1002200087FFFCCF89E792E00E9426048091BB0003
:1002300008958091B900887F0895CF93C82F8DE8E5
:1002400092E00E9426040E948D0086E20E94B00087
:100250008C2F0E94EA000E94A50080EA92E00E9492
:10026000260480E0CF910895CF93DF93EC0185EBD6
:1002700092E00E9426040E948D0087E20E94CD0039
:100280000E94070188838091B900887F803521F022
:1002900087EC92E00E9426040E94A5008AED92E07D
:1002A0009F938F930E9412040F900F9080E0DF9134
:1002B000CF9108951816190684F420E030E04FEF2E
:1002C00059EF60E0415050406040E1F700C000004D
:1002D0002F5F3F4F2817390791F708952FE0AC01A2
:1002E000249FC001259F900D1124885F984F909303
:1002F0008B0080938A00161617067CF480E090E04D
:100300005FEF29EF30E0515020403040E1F700C06E
:10031000000001968617970799F7089597FF0895AB
:100320009195819591090895880F991FBC01660FD9
:10033000771F660F771F660F771F680F791F882753
:1003400077FD8095982F0E94480320E030E040E23E
:1003500051E40E94AD020E941503CB010895FFCF26
:100360002091FC023091FD02AC01421B530B9A011B
:1003700057FD36C02531310534F52091FE0230910C
:10038000FF029093FD028093FC02232B69F5880FF6
:10039000991FBC01660F771F660F771F660F771FC7
:1003A000680F791F882777FD8095982F0E94480352
:1003B00020E030E040E251E40E94AD020E941503CB
:1003C000DC01CB01089521E030E04091FE02509124
:1003D000FF02241B350B3093FF022093FE02D1CF86
:1003E000319521953109C6CF0E94AF01F894109242
:1003F000C50080E18093C4008091C000826080933A
:10040000C00086E08093C20088E18093C1008CE147
:1004100091E090930303809302038EE091E0909328
:1004200001038093000384B1836084B9289A2998DA
:1004300082EA809380008AE1809381008FE39CE9C7
:100440009093870080938600229A78948DEE92E0B4
:100450000E9426048EE49CE090938B0080938A0097
:100460008AE090E02FEF39EF40E0215030404040EB
:10047000E1F700C000000197A9F7CAE0D0E00AE563
:1004800010E08FE0E82EFF24F39480910003909118
:1004900001030E94D4038136B9F1843609F456C0B1
:1004A000873709F456C0833709F455C017FD30C0AB
:1004B000053B1105ECF184E991E104EB10E0909328
:1004C0008B0080938A00D7FD2DC0C531D105C4F1C2
:1004D000C4E1D0E080E090E02FEF39EF40E0215020
:1004E00030404040E1F700C0000001968C179D07A6
:1004F0009CF385B18F2585B980910003909101030C
:100500000E94D403813649F60E51110917FFD0CF4E
:1005100088E097E000E010E090938B0080938A00E1
:10052000D7FFD3CFC0E0D0E085B18F2585B9E4CF28
:10053000E09EC001E19E900D1124885F984FBFCFCF
:10054000209741F685B18F2585B9D6CF025E1F4F22
:10055000ADCFE297ABCFE296A9CF0CD0EBC0E3D002
:1005600040F0DAD030F021F45F3F19F0CCC05111E7
:1005700015C1CFC0F0D098F39923C9F35523B1F337
:10058000951B550BBB27AA2762177307840738F002
:100590009F5F5F4F220F331F441FAA1FA9F333D061
:1005A0000E2E3AF0E0E830D091505040E695001C15
:1005B000CAF729D0FE2F27D0660F771F881FBB1FD1
:1005C000261737074807AB07B0E809F0BB0B802DAB
:1005D000BF01FF2793585F4F2AF09E3F510568F0F7
:1005E00092C0DCC05F3FECF3983EDCF386957795D4
:1005F0006795B795F7959F5FC9F7880F911D9695F9
:10060000879597F90895E1E0660F771F881FBB1F54
:10061000621773078407BA0720F0621B730B840B01
:10062000BA0BEE1F88F7E095089504D06894B111D5
:10063000B5C0089598D088F09F5790F0B92F9927AA
:10064000B751A0F0D1F0660F771F881F991F1AF0DD
:10065000BA95C9F712C0B13081F09FD0B1E00895CA
:100660009CC0672F782F8827B85F39F0B93FCCF34B
:10067000869577956795B395D9F73EF490958095D3
:10068000709561957F4F8F4F9F4F0895E89409C0F3
:1006900097FB3EF490958095709561957F4F8F4FB5
:1006A0009F4F9923A9F0F92F96E9BB279395F695CB
:1006B000879577956795B795F111F8CFFAF4BB0F49
:1006C00011F460FF1BC06F5F7F4F8F4F9F4F16C0AD
:1006D000882311F096E911C0772321F09EE8872F37
:1006E000762F05C0662371F096E8862F70E060E0F3
:1006F0002AF09A95660F771F881FDAF7880F96956C
:10070000879597F9089597F99F6780E870E060E012
:1007100008959FEF80EC089500240A94161617069A
:1007200018060906089500240A94121613061406E2
:1007300005060895092E0394000C11F4882352F045
:10074000BB0F40F4BF2B11F460FF04C06F5F7F4FFD
:100750008F4F9F4F089557FD9058440F551F59F0E4
:100760005F3F71F04795880F97FB991F61F09F3F9E
:1007700079F087950895121613061406551FF2CFC7
:100780004695F1DF08C0161617061806991FF1CF17
:1007900086957105610508940895E894BB2766273E
:1007A0007727CB0197F90895CF93DF93EC012B8145
:1007B00020FF33C026FF0AC02F7B2B838E819F81B1
:1007C00001969F838E838A8190E029C022FF0FC00B
:1007D000E881F9818081992787FD9095009719F428
:1007E00020622B831AC03196F983E8830EC0EA8514
:1007F000FB85099597FF09C02B81019611F480E1D3
:1008000001C080E2822B8B8308C02E813F812F5F45
:100810003F4F3F832E83992702C08FEF9FEFDF91D9
:10082000CF910895A0E0B0E0E8E1F4E00C94DB069D
:10083000FE01359661917191AF0180910203909113
:1008400003030E945304E2E00C94F7060F931F93F6
:10085000CF93DF93E0910203F0910303238121FF03
:100860001BC0EC0100E010E08991609102037091DF
:100870000303DB011896ED91FC911997882331F061
:100880000995892B89F30FEF1FEFEECF8AE00995C9
:10089000892B11F4C80102C08FEF9FEFDF91CF9138
:1008A0001F910F910895ACE0B0E0E9E5F4E00C94FD
:1008B000CB067C016B018A01FC01178216828381C1
:1008C00081FFBDC1CE0101964C01F7019381F60174
:1008D00093FD859193FF81916F01882309F4ABC14A
:1008E000853239F493FD859193FF81916F018532B3
:1008F00029F4B70190E00E943B06E7CF512C312C40
:1009000020E02032A0F48B3269F030F4803259F0CC
:10091000833269F420612CC08D3239F0803339F490
:10092000216026C02260246023C0286021C027FDEA
:1009300027C030ED380F3A3078F426FF06C0FAE0D1
:100940005F9E300D1124532E13C08AE0389E300D67
:100950001124332E20620CC08E3221F426FD6BC18F
:10096000206406C08C3611F4206802C0883641F439
:10097000F60193FD859193FF81916F018111C1CFA4
:10098000982F9F7D9554933028F40C5F1F4FFFE301
:10099000F9830DC0833631F0833771F0833509F068
:1009A0005BC022C0F801808189830E5F1F4F442401
:1009B0004394512C540115C03801F2E06F0E711CA4
:1009C000F801A080B18026FF03C0652D70E002C051
:1009D0006FEF7FEFC5012C870E9430062C01830149
:1009E0002C852F77222E17C03801F2E06F0E711C74
:1009F000F801A080B18026FF03C0652D70E002C021
:100A00006FEF7FEFC5012C870E9425062C012C85F6
:100A10002068222E830123FC1BC0832D90E0481602
:100A20005906B0F4B70180E290E00E943B063A9488
:100A3000F4CFF50127FC859127FE81915F01B70175
:100A400090E00E943B0631103A94F1E04F1A5108B1
:100A50004114510471F7E5C0843611F0893639F537
:100A6000F80127FF07C060817181828193810C5F4B
:100A70001F4F08C060817181882777FD8095982F6E
:100A80000E5F1F4F2F76B22E97FF09C0909580956D
:100A9000709561957F4F8F4F9F4F2068B22E2AE04F
:100AA00030E0A4010E946D06A82EA81844C0853726
:100AB00029F42F7EB22E2AE030E025C0F22FF97FF4
:100AC000BF2E8F36C1F018F4883579F0B4C0803766
:100AD00019F0883721F0AFC02F2F2061B22EB4FE5D
:100AE0000DC08B2D8460B82E09C024FF0AC09F2F33
:100AF0009660B92E06C028E030E005C020E130E065
:100B000002C020E132E0F801B7FE07C060817181C8
:100B1000828193810C5F1F4F06C06081718180E0EC
:100B200090E00E5F1F4FA4010E946D06A82EA8182A
:100B3000FB2DFF77BF2EB6FE0BC02B2D2E7FA514ED
:100B400050F4B4FE0AC0B2FC08C02B2D2E7E05C0A6
:100B50007A2C2B2D03C07A2C01C0752C24FF0DC0DC
:100B6000FE01EA0DF11D8081803311F4297E09C058
:100B700022FF06C07394739404C0822F867809F014
:100B8000739423FD13C020FF06C05A2C731418F46D
:100B9000530C5718732C731468F4B70180E290E07B
:100BA0002C870E943B0673942C85F5CF731410F4A8
:100BB000371801C0312C24FF12C0B70180E390E048
:100BC0002C870E943B062C8522FF17C021FF03C003
:100BD00088E590E002C088E790E0B7010CC0822F62
:100BE000867859F021FD02C080E201C08BE227FD2A
:100BF0008DE2B70190E00E943B06A51438F4B701DE
:100C000080E390E00E943B065A94F7CFAA94F40147
:100C1000EA0DF11D8081B70190E00E943B06A11012
:100C2000F5CF332009F451CEB70180E290E00E9465
:100C30003B063A94F6CFF7018681978102C08FEF89
:100C40009FEF2C96E2E10C94E706FC0105906150C1
:100C500070400110D8F7809590958E0F9F1F0895D2
:100C6000FC016150704001900110D8F7809590957B
:100C70008E0F9F1F08950F931F93CF93DF93182F0D
:100C8000092FEB018B8181FD03C08FEF9FEF20C007
:100C900082FF10C04E815F812C813D814217530736
:100CA0007CF4E881F9819F012F5F3F4F39832883CE
:100CB000108306C0E885F985812F0995892B29F7CE
:100CC0002E813F812F5F3F4F3F832E83812F902FB7
:100CD000DF91CF911F910F910895FA01AA27283033
:100CE00051F1203181F1E8946F936E7F6E5F7F4FF9
:100CF0008F4F9F4FAF4FB1E03ED0B4E03CD0670F75
:100D0000781F891F9A1FA11D680F791F8A1F911DC7
:100D1000A11D6A0F711D811D911DA11D20D009F417
:100D200068943F912AE0269F11243019305D319359
:100D3000DEF6CF010895462F4770405D4193B3E042
:100D40000FD0C9F7F6CF462F4F70405D4A3318F0E9
:100D5000495D31FD4052419302D0A9F7EACFB4E09A
:100D6000A6959795879577956795BA95C9F7009752
:100D70006105710508959B01AC010A2E06945795F3
:100D8000479537952795BA95C9F7620F731F841F4A
:100D9000951FA01D08952F923F924F925F926F92E0
:100DA0007F928F929F92AF92BF92CF92DF92EF92FB
:100DB000FF920F931F93CF93DF93CDB7DEB7CA1B7C
:100DC000DB0B0FB6F894DEBF0FBECDBF09942A88A7
:100DD000398848885F846E847D848C849B84AA844F
:100DE000B984C884DF80EE80FD800C811B81AA81DC
:100DF000B981CE0FD11D0FB6F894DEBF0FBECDBFA7
:080E0000ED010895F894FFCF05
:100E0800000000030000000053005A00000000002A
:100E180000010000000000005A000000000000026D
:100E280000000000530000000000456E7465722049
:100E380054574920696E69740D004C656176696E76
:100E4800672054574920696E69742C2054574352BF
:100E58003D25640D0A00456E746572205457495348
:100E6800746172740D005457492053746172742070
:100E78006661696C65640D004C656176696E672012
:100E880054574953746172740D00456E746572202D
:100E980054574953746F700D004C656176696E67DD
:100EA8002054574953746F700D00456E7465722055
:100EB800545749534C415757726974650D0054573C
:100EC80049534C41575772697465206661696C656E
:100ED800640D004C656176696E6720545749534C20
:100EE800415757726974650D00456E7465722054D8
:100EF8005749534C415257726974650D005457490C
:100F0800534C41525772697465206661696C656417
:100F18000D004C656176696E6720545749534C4102
:100F28005257726974650D00456E74657220545786
:100F3800494461746157726974650D005457494496
:100F48006174615772697465206661696C65640DC6
:100F5800004C656176696E67205457494461746135
:100F680057726974650D00456E746572205457494F
:100F78005265616441434B0D004C656176696E674B
:100F8800205457495265616441434B0D00456E74C6
:100F980065722045455772697465446174610D0036
:100FA8004C656176696E672045455772697465447A
:100FB8006174610D00456E74657220454552656126
:100FC80064446174610D005457495265616441433A
:100FD8004B206661696C65640D004C656176696ECD
:100FE8006720454552656164446174610048656CD9
:0C0FF8006C6F20776F726C64210D00009C
:00000001FF
