:100000000C9434000C9451000C9451000C94510049
:100010000C9451000C9451000C9451000C9451001C
:100020000C9451000C9451000C9451000C9451000C
:100030000C9451000C9451000C9451000C945100FC
:100040000C9451000C9451000C9451000C945100EC
:100050000C9451000C9451000C9451000C945100DC
:100060000C9451000C94510011241FBECFEFD8E026
:10007000DEBFCDBF11E0A0E0B1E0E6E8F4E002C0F1
:1000800005900D92A63AB107D9F711E0A6EAB1E0C2
:1000900001C01D92AC3AB107E1F70E9496010C94A1
:1000A00041020C9400009091C00095FFFCCF80931A
:1000B000C60008958091C00087FFFCCF8091C600E4
:1000C00008951092C50080E18093C400E0ECF0E058
:1000D00080818260808386E08093C20088E1809383
:1000E000C10008958AE291E00E9414021092B900C2
:1000F0008CE08093B80084E08093BC00089584E392
:1001000091E00E94140284EA8093BC008091BC00BC
:1001100087FFFCCF81E491E00C94140284E9809382
:10012000BC0008958093BB0084E88093BC0080915C
:10013000BC0087FFFCCF089584EC8093BC008091C5
:10014000BC0087FFFCCF8091BB00089584E88093BA
:10015000BC008091BC0087FFFCCF8091BB0008955C
:100160008091B900887F0895CF93C82F83E591E0EF
:100170000E9414020E947F009091B900987F9830ED
:1001800019F08FEFCF91089583E691E00E94140259
:100190008AE18093BB0084E88093BC009091BC000E
:1001A00097FFFCCF8091B900887F883151F780E7B5
:1001B00091E00E941402C093BB0084E88093BC00CD
:1001C0008091BC0087FFFCCF8091B900887F883187
:1001D000C1F680E791E00E94140284E98093BC009C
:1001E00080E0D0CFCF93DF93EC018DE791E00E94C8
:1001F00014020E947F008091B900887F883021F02E
:100200008FEFDF91CF91089583E691E00E94140271
:100210008BE18093BB0084E88093BC008091BC009C
:1002200087FFFCCF8091B900887F883149F780E74C
:1002300091E00E94140284E88093BC008091BC008D
:1002400087FFFCCF8091BB0088838091B900887FB5
:100250008831B1F68CE891E00E94140284E9809321
:10026000BC0080E0CECF22E380E090E0FC0131973B
:10027000F1F7FC013197F1F7FC013197F1F72150CB
:10028000A9F7089581E690E0909389008093880013
:1002900022E380E090E0FC013197F1F7FC01319717
:1002A000F1F7FC013197F1F72150A9F708958CE39C
:1002B00091E0909389008093880022E380E090E0B1
:1002C000FC013197F1F7FC013197F1F7FC0131970F
:1002D000F1F72150A9F7089589EA91E090938900F8
:1002E0008093880022E380E090E0FC013197F1F7F1
:1002F000FC013197F1F7FC013197F1F72150A9F793
:10030000089587E192E0909389008093880022E32A
:1003100080E090E0FC013197F1F7FC013197F1F7B3
:10032000FC013197F1F72150A9F708951092C5000B
:1003300080E18093C4008091C00082608093C000FF
:1003400086E08093C20088E18093C1008CE191E057
:100350009093A9018093A8018EE091E09093A7016A
:100360008093A60180918000826A809380008091B2
:1003700081008B618093810087E893E190938700EF
:10038000809386008AB180638AB988E991E00E94EF
:100390001402A1E6B0E080E090E06CE371E049EA8D
:1003A00051E027E132E0B0938900A0938800C2E3D6
:1003B000FC013197F1F7FC013197F1F7FC0131971E
:1003C000F1F7C150A9F77093890060938800C2E3E8
:1003D000FC013197F1F7FC013197F1F7FC013197FE
:1003E000F1F7C150A9F75093890040938800C2E308
:1003F000FC013197F1F7FC013197F1F7FC013197DE
:10040000F1F7C150A9F73093890020938800C2E327
:10041000FC013197F1F7FC013197F1F7FC013197BD
:10042000F1F7C150A9F7BFCF0F931F93CF93DF937D
:10043000E091A801F091A901238121FF1BC0EC01EB
:1004400000E010E089916091A8017091A901DB01A1
:100450001896ED91FC911997882331F00995892B15
:1004600089F30FEF1FEFEECF8AE00995892B11F486
:10047000C80102C08FEF9FEFDF91CF911F910F91C5
:060480000895F894FFCF7F
:10048600000000030000000053005A0000000000B6
:1004960000010000000000005A00000000000002F9
:1004A6000000000053000000000054574920696E08
:1004B60069740D00496E2054574953746172740D66
:1004C600004C656176696E672054574953746172B2
:1004D600740D00696E2045455772697465446174F0
:1004E600610D0061667465722073746172740D002B
:1004F60061667465722077726974650D00696E2095
:10050600454552656164446174610D0061667465B8
:100516007220726561640D0048656C6C6F20776FA0
:06052600726C64210D005F
:00000001FF
