:100000000C9434000C9451000C9451000C94510049
:100010000C9451000C9451000C9451000C9451001C
:100020000C9451000C9451000C9451000C9451000C
:100030000C9451000C9451000C9451000C945100FC
:100040000C9451000C9451000C9451000C945100EC
:100050000C9451000C9451000C9451000C945100DC
:100060000C9451000C94510011241FBECFEFD8E026
:10007000DEBFCDBF11E0A0E0B1E0E2E3F4E002C0FA
:1000800005900D92A833B107D9F711E0A8E3B1E0CC
:1000900001C01D92AE33B107E1F70E9488010C94B4
:1000A00017020C9400009091C00095FFFCCF809344
:1000B000C60008958091C00087FFFCCF8091C600E4
:1000C00008951092C50080E18093C400E0ECF0E058
:1000D00080818260808386E08093C20088E1809383
:1000E000C10008951092B9008CE08093B80084E0BC
:1000F0008093BC00089584EA8093BC008091BC008A
:1001000087FFFCCF089584E98093BC000895809315
:10011000BB0084E88093BC008091BC0087FFFCCFCB
:10012000089584EC8093BC008091BC0087FFFCCFD5
:100130008091BB00089584E88093BC008091BC004E
:1001400087FFFCCF8091BB0008958091B900887F24
:10015000089594EA9093BC009091BC0097FFFCCF67
:100160009091B900987F983011F08FEF08959AE13F
:100170009093BB0094E89093BC009091BC0097FFD3
:10018000FCCF9091B900987F983179F794EC9093D7
:10019000BC009091BC0097FFFCCF9091BB00909168
:1001A000B900987F983109F78093BB0084E8809369
:1001B000BC008091BC0087FFFCCF8091B900887F94
:1001C000883199F684EC8093BC008091BC0087FF55
:1001D000FCCF8091BB008091B900887F883129F6DF
:1001E00084E98093BC0080E0089584EA8093BC0099
:1001F0008091BC0087FFFCCF8091B900887F883058
:1002000011F08FEF08958BE18093BB0084E8809319
:10021000BC008091BC0087FFFCCF8091B900887F33
:10022000883179F784EC8093BC008091BC0087FF13
:10023000FCCF8091BB008091B900887F883109F79D
:1002400084E98093BC0080E0089522E380E090E0A0
:10025000FC013197F1F7FC013197F1F7FC0131977F
:10026000F1F72150A9F7089581E690E09093890075
:100270008093880022E380E090E0FC013197F1F761
:10028000FC013197F1F7FC013197F1F72150A9F703
:1002900008958CE391E0909389008093880022E395
:1002A00080E090E0FC013197F1F7FC013197F1F724
:1002B000FC013197F1F72150A9F7089589EA91E0FF
:1002C000909389008093880022E380E090E0FC0115
:1002D0003197F1F7FC013197F1F7FC013197F1F714
:1002E0002150A9F7089587E192E0909389008093C7
:1002F000880022E380E090E0FC013197F1F7FC01F7
:100300003197F1F7FC013197F1F72150A9F70895E2
:1003100080918000826A80938000809181008B614F
:100320008093810087E893E1909387008093860013
:100330008AB180638AB98AE291E00E94EA01A1E66B
:10034000B0E080E090E06CE371E049EA51E027E141
:1003500032E0B0938900A0938800C2E3FC0131979A
:10036000F1F7FC013197F1F7FC013197F1F7C1503A
:10037000A9F77093890060938800C2E3FC0131976C
:10038000F1F7FC013197F1F7FC013197F1F7C1501A
:10039000A9F75093890040938800C2E3FC0131978C
:1003A000F1F7FC013197F1F7FC013197F1F7C150FA
:1003B000A9F73093890020938800C2E3FC013197AC
:1003C000F1F7FC013197F1F7FC013197F1F7C150DA
:1003D000A9F7BFCF0F931F93CF93DF93E0913A011B
:1003E000F0913B01238121FF1BC0EC0100E010E0F4
:1003F000899160913A0170913B01DB011896ED9172
:10040000FC911997882331F00995892B89F30FEF17
:100410001FEFEECF8AE00995892B11F4C80102C0C5
:100420008FEF9FEFDF91CF911F910F910895F89477
:02043000FFCFFC
:10043200000000030000000053005A00000000000A
:1004420000010000000000005A000000000000024D
:100452000000000053000000000048656C6C6F2033
:08046200776F726C64210D003C
:00000001FF
