:100000000C9434000C9451000C9451000C94510049
:100010000C9451000C9451000C9451000C9451001C
:100020000C9451000C9451000C9451000C9451000C
:100030000C9451000C9451000C9451000C945100FC
:100040000C9451000C9451000C9451000C945100EC
:100050000C9451000C9451000C9451000C945100DC
:100060000C9451000C94510011241FBECFEFD8E026
:10007000DEBFCDBF11E0A0E0B1E0E0E2FDE002C0F4
:1000800005900D92A03BB107D9F711E0A0EBB1E0CC
:1000900001C01D92AA3BB107E1F70E940A020C942D
:1000A0008E060C9400009091C00095FFFCCF8093C9
:1000B000C60008958091C00087FFFCCF8091C600E4
:1000C00008951092C50080E18093C400E0ECF0E058
:1000D00080818260808386E08093C20088E1809383
:1000E000C10008958AE291E00E94B2031092B90023
:1000F0008CE08093B80084E08093BC00089584E392
:1001000091E00E94B20384EA8093BC008091BC001D
:100110001F928F9381E491E09F938F930E949E039F
:100120000F900F900F900F908091BC0087FFFCCF35
:100130008AE491E00C94B20384E98093BC000895B2
:100140008093BB0084E88093BC008091BC0087FF53
:10015000FCCF089584EC8093BC008091BC0087FFA5
:10016000FCCF8091BB00089584E88093BC0080910F
:10017000BC0087FFFCCF8091BB0008958091B9003F
:10018000887F0895CF93C82F8CE591E00E94B20339
:100190000E947F009091B900987F983019F08FEFFE
:1001A000CF9108958CE691E00E94B2038AE180939A
:1001B000BB0084E88093BC009091BC0097FFFCCF0B
:1001C0008091B900887F883151F789E791E00E94DA
:1001D000B203C093BB0084E88093BC008091BC0054
:1001E00087FFFCCF8091B900887F8831C1F689E70D
:1001F00091E00E94B20384E98093BC0080E0D0CFFC
:10020000CF93DF93EC0186E891E00E94B2030E9455
:100210007F008091B900887F883021F08FEFDF91D7
:10022000CF9108958CE691E00E94B2038BE1809318
:10023000BB0084E88093BC008091BC0087FFFCCFAA
:100240008091B900887F883149F789E791E00E9461
:10025000B20384E88093BC008091BC0087FFFCCF90
:100260008091BB0088838091B900887F8831B1F686
:1002700085E991E00E94B20384E98093BC0080E0AC
:10028000CECF2FEF83ED90E3215080409040E1F7F7
:1002900000C00000089588E097E090938B00809361
:1002A0008A002FEF83ED90E3215080409040E1F7EA
:1002B00000C00000089588EB9BE090938B00809332
:1002C0008A002FEF83ED90E3215080409040E1F7CA
:1002D00000C00000089588ED9EE090938B0080930D
:1002E0008A002FEF83ED90E3215080409040E1F7AA
:1002F00000C00000089584E991E190938B00809301
:100300008A002FEF83ED90E3215080409040E1F789
:1003100000C0000008952FE0AC01249FC001259F7C
:10032000900D1124885F984F90938B0080938A00E2
:100330005FEF83ED90E3515080409040E1F700C0C3
:100340000000089597FF089591958195910908956A
:10035000880F991FBC01660F771F660F771F660F06
:10036000771F680F791F882777FD8095982F0E9447
:10037000120320E030E040E251E40E9477020E9444
:10038000DF02CB010895FFCF2091B0013091B10180
:10039000AC01421B530B9A0157FD36C02531310584
:1003A00034F52091B2013091B3019093B101809363
:1003B000B001232B69F5880F991FBC01660F771FC9
:1003C000660F771F660F771F680F791F882777FDE5
:1003D0008095982F0E94120320E030E040E251E423
:1003E0000E9477020E94DF02DC01CB01089521E028
:1003F00030E04091B2015091B301241B350B309392
:10040000B3012093B201D1CF319521953109C6CFE7
:100410000E94C301F8941092C50080E18093C4004B
:100420008091C00082608093C00086E08093C2000B
:1004300088E18093C1008CE191E09093B7018093B3
:10044000B6018EE091E09093B5018093B40184B140
:10045000836084B9289A29988AE291E00E94B203C5
:100460001092B9008CE08093B80084E08093BC00C7
:1004700082EA809380008AE1809381008FE39CE987
:100480009093870080938600229A789481EA91E085
:100490000E94B20380E090E048E057E06FE05093A4
:1004A0008B0040938A002FEF33ED70E321503040F2
:1004B0007040E1F700C00000689F9001699F300D17
:1004C0001124285F384F30938B0020938A002FEF40
:1004D00033ED70E3215030407040E1F700C0000080
:1004E0004E96823D9105D9F680E090E0D8CF0CD0B1
:1004F000EBC0E3D040F0DAD030F021F45F3F19F0E8
:10050000CCC0511115C1CFC0F0D098F39923C9F3D5
:100510005523B1F3951B550BBB27AA276217730709
:10052000840738F09F5F5F4F220F331F441FAA1FBD
:10053000A9F333D00E2E3AF0E0E830D0915050407D
:10054000E695001CCAF729D0FE2F27D0660F771F2B
:10055000881FBB1F261737074807AB07B0E809F00D
:10056000BB0B802DBF01FF2793585F4F2AF09E3FA2
:10057000510568F092C0DCC05F3FECF3983EDCF3BD
:10058000869577956795B795F7959F5FC9F7880F1B
:10059000911D9695879597F90895E1E0660F771F6D
:1005A000881FBB1F621773078407BA0720F0621BFE
:1005B000730B840BBA0BEE1F88F7E095089504D0F7
:1005C0006894B111B5C0089598D088F09F5790F005
:1005D000B92F9927B751A0F0D1F0660F771F881F68
:1005E000991F1AF0BA95C9F712C0B13081F09FD0A7
:1005F000B1E008959CC0672F782F8827B85F39F045
:10060000B93FCCF3869577956795B395D9F73EF4C6
:1006100090958095709561957F4F8F4F9F4F08956E
:10062000E89409C097FB3EF490958095709561958C
:100630007F4F8F4F9F4F9923A9F0F92F96E9BB2742
:100640009395F695879577956795B795F111F8CFBE
:10065000FAF4BB0F11F460FF1BC06F5F7F4F8F4F29
:100660009F4F16C0882311F096E911C0772321F01F
:100670009EE8872F762F05C0662371F096E8862FB7
:1006800070E060E02AF09A95660F771F881FDAF70E
:10069000880F9695879597F9089597F99F6780E851
:1006A00070E060E008959FEF80EC089500240A94C4
:1006B0001616170618060906089500240A9412163D
:1006C0001306140605060895092E0394000C11F470
:1006D000882352F0BB0F40F4BF2B11F460FF04C01D
:1006E0006F5F7F4F8F4F9F4F089557FD9058440F76
:1006F000551F59F05F3F71F04795880F97FB991F81
:1007000061F09F3F79F0879508951216130614063D
:10071000551FF2CF4695F1DF08C0161617061806CA
:10072000991FF1CF86957105610508940895E894A5
:10073000BB2766277727CB0197F90895A0E0B0E0A3
:10074000E4EAF3E00C946706FE013596619171913D
:10075000AF018091B6019091B7010E94DF03E2E002
:100760000C9483060F931F93CF93DF93E091B60110
:10077000F091B701238121FF1BC0EC0100E010E0E4
:1007800089916091B6017091B701DB011896ED91E6
:10079000FC911997882331F00995892B89F30FEF84
:1007A0001FEFEECF8AE00995892B11F4C80102C032
:1007B0008FEF9FEFDF91CF911F910F910895ACE0E4
:1007C000B0E0E5EEF3E00C9457067C016B018A0182
:1007D000FC0117821682838181FFBDC1CE01019683
:1007E0004C01F7019381F60193FD859193FF81916F
:1007F0006F01882309F4ABC1853239F493FD8591EB
:1008000093FF81916F01853229F4B70190E00E9436
:10081000C705E7CF512C312C20E02032A0F48B32D9
:1008200069F030F4803259F0833269F420612CC0D1
:100830008D3239F0803339F4216026C02260246083
:1008400023C0286021C027FD27C030ED380F3A3083
:1008500078F426FF06C0FAE05F9E300D1124532E77
:1008600013C08AE0389E300D1124332E20620CC054
:100870008E3221F426FD6BC1206406C08C3611F443
:10088000206802C0883641F4F60193FD859193FFFC
:1008900081916F018111C1CF982F9F7D9554933025
:1008A00028F40C5F1F4FFFE3F9830DC0833631F04E
:1008B000833771F0833509F05BC022C0F801808175
:1008C00089830E5F1F4F44244394512C540115C05B
:1008D0003801F2E06F0E711CF801A080B18026FF94
:1008E00003C0652D70E002C06FEF7FEFC5012C875C
:1008F0000E94BC052C0183012C852F77222E17C066
:100900003801F2E06F0E711CF801A080B18026FF63
:1009100003C0652D70E002C06FEF7FEFC5012C872B
:100920000E94B1052C012C852068222E830123FC16
:100930001BC0832D90E048165906B0F4B70180E241
:1009400090E00E94C7053A94F4CFF50127FC859109
:1009500027FE81915F01B70190E00E94C705311029
:100960003A94F1E04F1A51084114510471F7E5C06F
:10097000843611F0893639F5F80127FF07C0608108
:100980007181828193810C5F1F4F08C060817181EA
:10099000882777FD8095982F0E5F1F4F2F76B22EF8
:1009A00097FF09C090958095709561957F4F8F4F07
:1009B0009F4F2068B22E2AE030E0A4010E94F90582
:1009C000A82EA81844C0853729F42F7EB22E2AE01D
:1009D00030E025C0F22FF97FBF2E8F36C1F018F41A
:1009E000883579F0B4C0803719F0883721F0AFC06E
:1009F0002F2F2061B22EB4FE0DC08B2D8460B82E37
:100A000009C024FF0AC09F2F9660B92E06C028E0B7
:100A100030E005C020E130E002C020E132E0F80122
:100A2000B7FE07C060817181828193810C5F1F4F87
:100A300006C06081718180E090E00E5F1F4FA401CD
:100A40000E94F905A82EA818FB2DFF77BF2EB6FE31
:100A50000BC02B2D2E7FA51450F4B4FE0AC0B2FC9F
:100A600008C02B2D2E7E05C07A2C2B2D03C07A2C8E
:100A700001C0752C24FF0DC0FE01EA0DF11D80811F
:100A8000803311F4297E09C022FF06C07394739449
:100A900004C0822F867809F0739423FD13C020FFD1
:100AA00006C05A2C731418F4530C5718732C731473
:100AB00068F4B70180E290E02C870E94C705739428
:100AC0002C85F5CF731410F4371801C0312C24FF96
:100AD00012C0B70180E390E02C870E94C7052C85E7
:100AE00022FF17C021FF03C088E590E002C088E71D
:100AF00090E0B7010CC0822F867859F021FD02C02A
:100B000080E201C08BE227FD8DE2B70190E00E94F8
:100B1000C705A51438F4B70180E390E00E94C7052B
:100B20005A94F7CFAA94F401EA0DF11D8081B70120
:100B300090E00E94C705A110F5CF332009F451CEF3
:100B4000B70180E290E00E94C7053A94F6CFF70122
:100B50008681978102C08FEF9FEF2C96E2E10C9483
:100B60007306FC010590615070400110D8F7809524
:100B700090958E0F9F1F0895FC0161507040019069
:100B80000110D8F7809590958E0F9F1F08950F93B1
:100B90001F93CF93DF93182F092FEB018B8181FDDA
:100BA00003C08FEF9FEF20C082FF10C04E815F8196
:100BB0002C813D81421753077CF4E881F9819F0124
:100BC0002F5F3F4F39832883108306C0E885F9855E
:100BD000812F0995892B29F72E813F812F5F3F4F68
:100BE0003F832E83812F902FDF91CF911F910F9103
:100BF0000895FA01AA27283051F1203181F1E894B3
:100C00006F936E7F6E5F7F4F8F4F9F4FAF4FB1E0FF
:100C10003ED0B4E03CD0670F781F891F9A1FA11DFA
:100C2000680F791F8A1F911DA11D6A0F711D811DFB
:100C3000911DA11D20D009F468943F912AE0269FC0
:100C400011243019305D3193DEF6CF010895462F1F
:100C50004770405D4193B3E00FD0C9F7F6CF462F00
:100C60004F70405D4A3318F0495D31FD4052419369
:100C700002D0A9F7EACFB4E0A69597958795779526
:100C80006795BA95C9F700976105710508959B01AD
:100C9000AC010A2E06945795479537952795BA9536
:100CA000C9F7620F731F841F951FA01D08952F920F
:100CB0003F924F925F926F927F928F929F92AF92EC
:100CC000BF92CF92DF92EF92FF920F931F93CF9339
:100CD000DF93CDB7DEB7CA1BDB0B0FB6F894DEBFD0
:100CE0000FBECDBF09942A88398848885F846E84F6
:100CF0007D848C849B84AA84B984C884DF80EE8040
:100D0000FD800C811B81AA81B981CE0FD11D0FB648
:100D1000F894DEBF0FBECDBFED010895F894FFCF6C
:100D2000000000030000000053005A000000000013
:100D300000010000000000005A0000000000000256
:100D40000000000053000000000054574920696E65
:100D500069740D00496E2054574953746172740DC3
:100D600000545743523D25620A004C656176696E16
:100D7000672054574953746172740D00696E2045A1
:100D8000455772697465446174610D0061667465EC
:100D9000722073746172740D0061667465722077DD
:100DA000726974650D00696E204545526561644441
:100DB0006174610D00616674657220726561640D15
:100DC0000048656C6C6F20776F726C64210D0000B9
:00000001FF
